{"abi":[{"type":"function","name":"MAX_TO_PROCESS","inputs":[],"outputs":[{"name":"","type":"uint256","internalType":"uint256"}],"stateMutability":"view"},{"type":"function","name":"TEN_MINUTES","inputs":[],"outputs":[{"name":"","type":"uint256","internalType":"uint256"}],"stateMutability":"view"},{"type":"function","name":"lastChanged","inputs":[{"name":"account","type":"address","internalType":"address"}],"outputs":[{"name":"","type":"uint256","internalType":"uint256"}],"stateMutability":"view"},{"type":"function","name":"reset","inputs":[{"name":"account","type":"address","internalType":"address"}],"outputs":[],"stateMutability":"nonpayable"},{"type":"function","name":"state","inputs":[{"name":"account","type":"address","internalType":"address"}],"outputs":[{"name":"","type":"uint8","internalType":"enum TimedContract.AccountState"}],"stateMutability":"view"},{"type":"function","name":"totalAccounts","inputs":[],"outputs":[{"name":"","type":"uint256","internalType":"uint256"}],"stateMutability":"view"},{"type":"function","name":"update","inputs":[],"outputs":[],"stateMutability":"nonpayable"},{"type":"event","name":"AccountRegistered","inputs":[{"name":"account","type":"address","indexed":true,"internalType":"address"}],"anonymous":false},{"type":"event","name":"StateReset","inputs":[{"name":"account","type":"address","indexed":true,"internalType":"address"}],"anonymous":false},{"type":"event","name":"StateUpdated","inputs":[{"name":"account","type":"address","indexed":true,"internalType":"address"}],"anonymous":false},{"type":"error","name":"NothingToProcess","inputs":[]}],"bytecode":{"object":"0x608060405234801561000f575f80fd5b506103d98061001d5f395ff3fe608060405234801561000f575f80fd5b506004361061007a575f3560e01c806347b8eada1161005857806347b8eada146100da57806358451f97146101025780636b8ab97d14610109578063a2e620451461011e575f80fd5b8063160c018a1461007e5780631eb06a1a1461009a57806331e658a5146100a2575b5f80fd5b61008761025881565b6040519081526020015b60405180910390f35b610087603281565b6100cd6100b036600461033c565b6001600160a01b03165f9081526002602052604090205460ff1690565b6040516100919190610369565b6100876100e836600461033c565b6001600160a01b03165f9081526003602052604090205490565b5f54610087565b61011c61011736600461033c565b610126565b005b61011c610184565b61012f81610295565b6001600160a01b0381165f818152600260209081526040808320805460ff191690556003909152808220429055517f5a213fff7032b1ab5cb2735bbbff0f3926581deebdb3048653e34eb14c6cf3e19190a250565b5f8054908190036101a857604051630683f18b60e41b815260040160405180910390fd5b6004545f90426102588111156101c25761025719016101c5565b505f5b603283101561028d575f8083815481106101e1576101e161038f565b5f9182526020808320909101546001600160a01b031680835260039091526040909120549091508210610264576001600160a01b0381165f818152600260209081526040808320805460ff191660011790556003909152808220429055517f3f7c5904943ad21b9256174ea1f6c00b1785c4a181ffe526f8bba2ac0ad2a06d9190a25b600193840193808401938690030161027a575f92505b848403610287575061028d565b506101c5565b506004555050565b6001600160a01b0381165f908152600160205260408120549003610339575f8054600180820183557f290decd9548b62a8d60345a988386fc84ba6bc95484008f6362f93160ef3e56390910180546001600160a01b0319166001600160a01b0385169081179091558254818452602092909252604080842092909255905190917fcd822dc9688e20acea68724a2fbcfe4f3e526d20ecaa37b18fe3047ab377d6a591a25b50565b5f6020828403121561034c575f80fd5b81356001600160a01b0381168114610362575f80fd5b9392505050565b602081016002831061038957634e487b7160e01b5f52602160045260245ffd5b91905290565b634e487b7160e01b5f52603260045260245ffdfea2646970667358221220ff24e4db7c5b8b66f50be2dc4f863d8aaf3339d7998201d34b703e77fef1491664736f6c63430008180033","linkReferences":{}},"methodIdentifiers":{"MAX_TO_PROCESS()":"1eb06a1a","TEN_MINUTES()":"160c018a","lastChanged(address)":"47b8eada","reset(address)":"6b8ab97d","state(address)":"31e658a5","totalAccounts()":"58451f97","update()":"a2e62045"},"id":19}